{
    "legacy": {
        "addressA": "mkzpqqjxfqQiFR6pyhsBa3UxXkvvZ7ogA5",
        "addressB": "mtVjRtoke3zPsAUkEsby1wNzHbM3mxSr9K",
        "addressC": "mmS22hGDRGqiiuwfJfLrdQZdNujskzT4qz",
        "fundingTxid": "d8dad6dede3f358fc7a270996366d74eebd315a907f3e36b52bd860674eb23ce",
        "txAtoB": {
            "txid": "eda34dad69eb9769b86913fc033a562f86400a3a331e0729ec3fe3a19b83adc6",
            "rawHex": "0200000001ce23eb740686bd526be3f307a915d3eb4ed766639970a2c78f353fdeded6dad8000000006a473044022019cdc293da8a1b538f64d5d73f622b7869b30238f32f3f7e3d3acbe81c960d9402206970c8b8616a7012ea2d9b2a1ac7a769b7390a4ec09ec8baded6af2791cc78ae01210235f0395315b913a2ac70173f9b08b65fde600137931371358e6a1bbfa9883358fdffffff0228022c04000000001976a9148e5e7aef0ce4c4aad0e4e17a4cc3307bad0a045488acc8b7c901000000001976a9143c1e0e26b35c55e778b67104e084275fce1ed27188ac00000000",
            "decoded": {
                "txid": "eda34dad69eb9769b86913fc033a562f86400a3a331e0729ec3fe3a19b83adc6",
                "hash": "eda34dad69eb9769b86913fc033a562f86400a3a331e0729ec3fe3a19b83adc6",
                "version": 2,
                "size": 225,
                "vsize": 225,
                "weight": 900,
                "locktime": 0,
                "vin": [
                    {
                        "txid": "d8dad6dede3f358fc7a270996366d74eebd315a907f3e36b52bd860674eb23ce",
                        "vout": 0,
                        "scriptSig": {
                            "asm": "3044022019cdc293da8a1b538f64d5d73f622b7869b30238f32f3f7e3d3acbe81c960d9402206970c8b8616a7012ea2d9b2a1ac7a769b7390a4ec09ec8baded6af2791cc78ae[ALL] 0235f0395315b913a2ac70173f9b08b65fde600137931371358e6a1bbfa9883358",
                            "hex": "473044022019cdc293da8a1b538f64d5d73f622b7869b30238f32f3f7e3d3acbe81c960d9402206970c8b8616a7012ea2d9b2a1ac7a769b7390a4ec09ec8baded6af2791cc78ae01210235f0395315b913a2ac70173f9b08b65fde600137931371358e6a1bbfa9883358"
                        },
                        "sequence": 4294967293
                    }
                ],
                "vout": [
                    {
                        "value": 0.69993,
                        "n": 0,
                        "scriptPubKey": {
                            "asm": "OP_DUP OP_HASH160 8e5e7aef0ce4c4aad0e4e17a4cc3307bad0a0454 OP_EQUALVERIFY OP_CHECKSIG",
                            "desc": "addr(mtVjRtoke3zPsAUkEsby1wNzHbM3mxSr9K)#6hngxamz",
                            "hex": "76a9148e5e7aef0ce4c4aad0e4e17a4cc3307bad0a045488ac",
                            "address": "mtVjRtoke3zPsAUkEsby1wNzHbM3mxSr9K",
                            "type": "pubkeyhash"
                        }
                    },
                    {
                        "value": 0.29997,
                        "n": 1,
                        "scriptPubKey": {
                            "asm": "OP_DUP OP_HASH160 3c1e0e26b35c55e778b67104e084275fce1ed271 OP_EQUALVERIFY OP_CHECKSIG",
                            "desc": "addr(mkzpqqjxfqQiFR6pyhsBa3UxXkvvZ7ogA5)#xxnhnqqs",
                            "hex": "76a9143c1e0e26b35c55e778b67104e084275fce1ed27188ac",
                            "address": "mkzpqqjxfqQiFR6pyhsBa3UxXkvvZ7ogA5",
                            "type": "pubkeyhash"
                        }
                    }
                ]
            }
        },
        "txBtoC": {
            "txid": "e0f4e8b9e5a62c6946b77853c51c8d485c4ab2b875f826859f4565ed2fcee7d0",
            "rawHex": "0200000001c6ad839ba1e33fec29071e333a0a40862f563a03fc1369b86997eb69ad4da3ed000000006a4730440220526f90e9455261bd06496bcd2fc8346cf1d6c8069f5412878a95daec2aa55c4902201edb7d6a4f270dcb764d2f4c92881f12f88633e52b271052a8708048443255fa012103f12186182892f433ef6be961626ab84d5bcc24a819f575ea070457691046fb27fdffffff028ced1502000000001976a91440e1caf9b38ded2b963d452d7c82ef0d1c61978588ac8ced1502000000001976a9148e5e7aef0ce4c4aad0e4e17a4cc3307bad0a045488ac00000000",
            "decoded": {
                "txid": "e0f4e8b9e5a62c6946b77853c51c8d485c4ab2b875f826859f4565ed2fcee7d0",
                "hash": "e0f4e8b9e5a62c6946b77853c51c8d485c4ab2b875f826859f4565ed2fcee7d0",
                "version": 2,
                "size": 225,
                "vsize": 225,
                "weight": 900,
                "locktime": 0,
                "vin": [
                    {
                        "txid": "eda34dad69eb9769b86913fc033a562f86400a3a331e0729ec3fe3a19b83adc6",
                        "vout": 0,
                        "scriptSig": {
                            "asm": "30440220526f90e9455261bd06496bcd2fc8346cf1d6c8069f5412878a95daec2aa55c4902201edb7d6a4f270dcb764d2f4c92881f12f88633e52b271052a8708048443255fa[ALL] 03f12186182892f433ef6be961626ab84d5bcc24a819f575ea070457691046fb27",
                            "hex": "4730440220526f90e9455261bd06496bcd2fc8346cf1d6c8069f5412878a95daec2aa55c4902201edb7d6a4f270dcb764d2f4c92881f12f88633e52b271052a8708048443255fa012103f12186182892f433ef6be961626ab84d5bcc24a819f575ea070457691046fb27"
                        },
                        "sequence": 4294967293
                    }
                ],
                "vout": [
                    {
                        "value": 0.349915,
                        "n": 0,
                        "scriptPubKey": {
                            "asm": "OP_DUP OP_HASH160 40e1caf9b38ded2b963d452d7c82ef0d1c619785 OP_EQUALVERIFY OP_CHECKSIG",
                            "desc": "addr(mmS22hGDRGqiiuwfJfLrdQZdNujskzT4qz)#93xgqgcw",
                            "hex": "76a91440e1caf9b38ded2b963d452d7c82ef0d1c61978588ac",
                            "address": "mmS22hGDRGqiiuwfJfLrdQZdNujskzT4qz",
                            "type": "pubkeyhash"
                        }
                    },
                    {
                        "value": 0.349915,
                        "n": 1,
                        "scriptPubKey": {
                            "asm": "OP_DUP OP_HASH160 8e5e7aef0ce4c4aad0e4e17a4cc3307bad0a0454 OP_EQUALVERIFY OP_CHECKSIG",
                            "desc": "addr(mtVjRtoke3zPsAUkEsby1wNzHbM3mxSr9K)#6hngxamz",
                            "hex": "76a9148e5e7aef0ce4c4aad0e4e17a4cc3307bad0a045488ac",
                            "address": "mtVjRtoke3zPsAUkEsby1wNzHbM3mxSr9K",
                            "type": "pubkeyhash"
                        }
                    }
                ]
            }
        }
    }
}